{
  "_format": "hh-sol-artifact-1",
  "contractName": "SendIpfsHash",
  "sourceName": "contracts/SendIpfsHash.sol",
  "abi": [
    {
      "anonymous": false,
      "inputs": [
        {
          "indexed": false,
          "internalType": "string",
          "name": "_cidComment",
          "type": "string"
        }
      ],
      "name": "AddLatestCommentInfo",
      "type": "event"
    },
    {
      "anonymous": false,
      "inputs": [
        {
          "indexed": false,
          "internalType": "string",
          "name": "_companyHash",
          "type": "string"
        },
        {
          "indexed": false,
          "internalType": "string",
          "name": "_commentHash",
          "type": "string"
        }
      ],
      "name": "AddNewComment",
      "type": "event"
    },
    {
      "anonymous": false,
      "inputs": [
        {
          "indexed": false,
          "internalType": "string",
          "name": "_companyHash",
          "type": "string"
        },
        {
          "indexed": false,
          "internalType": "string",
          "name": "_companyName",
          "type": "string"
        }
      ],
      "name": "AddNewCompany",
      "type": "event"
    },
    {
      "anonymous": false,
      "inputs": [
        {
          "indexed": false,
          "internalType": "string",
          "name": "_ipfsHashChild",
          "type": "string"
        },
        {
          "indexed": false,
          "internalType": "string",
          "name": "_ipfsHashParent",
          "type": "string"
        }
      ],
      "name": "AddNewSubComment",
      "type": "event"
    },
    {
      "inputs": [
        {
          "internalType": "string",
          "name": "_cidComment",
          "type": "string"
        }
      ],
      "name": "addLatestCommentInfo",
      "outputs": [],
      "stateMutability": "payable",
      "type": "function"
    },
    {
      "inputs": [
        {
          "internalType": "string",
          "name": "_companyHash",
          "type": "string"
        },
        {
          "internalType": "string",
          "name": "_commentHash",
          "type": "string"
        }
      ],
      "name": "addNewComment",
      "outputs": [],
      "stateMutability": "payable",
      "type": "function"
    },
    {
      "inputs": [
        {
          "internalType": "string",
          "name": "_companyHash",
          "type": "string"
        },
        {
          "internalType": "string",
          "name": "_companyName",
          "type": "string"
        }
      ],
      "name": "addNewCompany",
      "outputs": [],
      "stateMutability": "payable",
      "type": "function"
    },
    {
      "inputs": [
        {
          "internalType": "string",
          "name": "_ipfsHashChild",
          "type": "string"
        },
        {
          "internalType": "string",
          "name": "_ipfsHashParent",
          "type": "string"
        }
      ],
      "name": "addNewSubComment",
      "outputs": [],
      "stateMutability": "payable",
      "type": "function"
    },
    {
      "inputs": [
        {
          "internalType": "string",
          "name": "_companyHash",
          "type": "string"
        }
      ],
      "name": "getArrComment",
      "outputs": [
        {
          "internalType": "string[]",
          "name": "",
          "type": "string[]"
        }
      ],
      "stateMutability": "view",
      "type": "function"
    },
    {
      "inputs": [],
      "name": "getArrCompany",
      "outputs": [
        {
          "components": [
            {
              "internalType": "string",
              "name": "companyHash",
              "type": "string"
            },
            {
              "internalType": "string",
              "name": "name",
              "type": "string"
            }
          ],
          "internalType": "struct SendIpfsHash.CompanyHash[]",
          "name": "",
          "type": "tuple[]"
        }
      ],
      "stateMutability": "view",
      "type": "function"
    },
    {
      "inputs": [
        {
          "internalType": "string",
          "name": "_ipfsHash",
          "type": "string"
        }
      ],
      "name": "getArrRepComment",
      "outputs": [
        {
          "internalType": "string[]",
          "name": "",
          "type": "string[]"
        }
      ],
      "stateMutability": "view",
      "type": "function"
    },
    {
      "inputs": [],
      "name": "getCommentHistory",
      "outputs": [
        {
          "internalType": "string[]",
          "name": "",
          "type": "string[]"
        }
      ],
      "stateMutability": "view",
      "type": "function"
    },
    {
      "inputs": [
        {
          "internalType": "string",
          "name": "_companyName",
          "type": "string"
        }
      ],
      "name": "getCompanyHash",
      "outputs": [
        {
          "internalType": "string",
          "name": "_name",
          "type": "string"
        }
      ],
      "stateMutability": "view",
      "type": "function"
    }
  ],
  "bytecode": "0x608060405234801561001057600080fd5b50611719806100206000396000f3fe6080604052600436106100865760003560e01c806383e68d3c1161005957806383e68d3c1461012b57806397bf78d214610156578063a9ff796f14610193578063c9b3c739146101af578063d4b6fbe2146101cb57610086565b80631f30f0db1461008b57806323ec6148146100a757806348093a64146100d25780634ef443311461010f575b600080fd5b6100a560048036038101906100a09190610e79565b610208565b005b3480156100b357600080fd5b506100bc6103b2565b6040516100c99190611032565b60405180910390f35b3480156100de57600080fd5b506100f960048036038101906100f49190611054565b61048b565b6040516101069190611032565b60405180910390f35b61012960048036038101906101249190611054565b610582565b005b34801561013757600080fd5b5061014061064e565b60405161014d91906111a3565b60405180910390f35b34801561016257600080fd5b5061017d60048036038101906101789190611054565b6107d1565b60405161018a919061120f565b60405180910390f35b6101ad60048036038101906101a89190610e79565b61092a565b005b6101c960048036038101906101c49190610e79565b610ab7565b005b3480156101d757600080fd5b506101f260048036038101906101ed9190611054565b610bb1565b6040516101ff9190611032565b60405180910390f35b60005b6000805490508110156102a85781604051602001610229919061126d565b604051602081830303815290604052805190602001206000828154811061025357610252611284565b5b906000526020600020906002020160010160405160200161027491906113ab565b604051602081830303815290604052805190602001200361029557506103ae565b80806102a0906113fb565b91505061020b565b506000604051806040016040528084815260200183815250908060018154018082558091505060019003906000526020600020906002020160009091909190915060008201518160000190816102fe91906115da565b50602082015181600101908161031491906115da565b50505033600483604051610328919061126d565b908152602001604051809103902060006101000a81548173ffffffffffffffffffffffffffffffffffffffff021916908373ffffffffffffffffffffffffffffffffffffffff1602179055507fd71a0474dff5c25b55face685a47316e7051a920d0c48f70ec048571b5ddf58382826040516103a59291906116ac565b60405180910390a15b5050565b60606001805480602002602001604051908101604052809291908181526020016000905b828210156104825783829060005260206000200180546103f5906112e2565b80601f0160208091040260200160405190810160405280929190818152602001828054610421906112e2565b801561046e5780601f106104435761010080835404028352916020019161046e565b820191906000526020600020905b81548152906001019060200180831161045157829003601f168201915b5050505050815260200190600101906103d6565b50505050905090565b606060028260405161049d919061126d565b9081526020016040518091039020805480602002602001604051908101604052809291908181526020016000905b828210156105775783829060005260206000200180546104ea906112e2565b80601f0160208091040260200160405190810160405280929190818152602001828054610516906112e2565b80156105635780601f1061053857610100808354040283529160200191610563565b820191906000526020600020905b81548152906001019060200180831161054657829003601f168201915b5050505050815260200190600101906104cb565b505050509050919050565b6001819080600181540180825580915050600190039060005260206000200160009091909190915090816105b691906115da565b50336004826040516105c8919061126d565b908152602001604051809103902060006101000a81548173ffffffffffffffffffffffffffffffffffffffff021916908373ffffffffffffffffffffffffffffffffffffffff1602179055507fc0543cd08846f32103e45c4e282c67a990463fa91e0403a126b75dfbd9b7da7381604051610643919061120f565b60405180910390a150565b60606000805480602002602001604051908101604052809291908181526020016000905b828210156107c857838290600052602060002090600202016040518060400160405290816000820180546106a5906112e2565b80601f01602080910402602001604051908101604052809291908181526020018280546106d1906112e2565b801561071e5780601f106106f35761010080835404028352916020019161071e565b820191906000526020600020905b81548152906001019060200180831161070157829003601f168201915b50505050508152602001600182018054610737906112e2565b80601f0160208091040260200160405190810160405280929190818152602001828054610763906112e2565b80156107b05780601f10610785576101008083540402835291602001916107b0565b820191906000526020600020905b81548152906001019060200180831161079357829003601f168201915b50505050508152505081526020019060010190610672565b50505050905090565b606060005b60008054905081101561092357826040516020016107f4919061126d565b604051602081830303815290604052805190602001206000828154811061081e5761081d611284565b5b906000526020600020906002020160010160405160200161083f91906113ab565b6040516020818303038152906040528051906020012003610910576000818154811061086e5761086d611284565b5b9060005260206000209060020201600001805461088a906112e2565b80601f01602080910402602001604051908101604052809291908181526020018280546108b6906112e2565b80156109035780601f106108d857610100808354040283529160200191610903565b820191906000526020600020905b8154815290600101906020018083116108e657829003601f168201915b5050505050915050610925565b808061091b906113fb565b9150506107d6565b505b919050565b60005b600080549050811015610a78578260405160200161094b919061126d565b604051602081830303815290604052805190602001206000828154811061097557610974611284565b5b906000526020600020906002020160000160405160200161099691906113ab565b6040516020818303038152906040528051906020012003610a65576002836040516109c1919061126d565b908152602001604051809103902082908060018154018082558091505060019003906000526020600020016000909190919091509081610a0191906115da565b5033600483604051610a13919061126d565b908152602001604051809103902060006101000a81548173ffffffffffffffffffffffffffffffffffffffff021916908373ffffffffffffffffffffffffffffffffffffffff16021790555050610ab3565b8080610a70906113fb565b91505061092d565b507fae10145287651b83a5de10f9d468219edd3826243f80e18231ca76ca8610bc3e8282604051610aaa9291906116ac565b60405180910390a15b5050565b610ac081610ca8565b15610b7457600381604051610ad5919061126d565b908152602001604051809103902082908060018154018082558091505060019003906000526020600020016000909190919091509081610b1591906115da565b5033600483604051610b27919061126d565b908152602001604051809103902060006101000a81548173ffffffffffffffffffffffffffffffffffffffff021916908373ffffffffffffffffffffffffffffffffffffffff1602179055505b7f7a4975e654710c5a16936d040f048f105cca8fa44f31b9d13fc5ed05721ebf9d8282604051610ba59291906116ac565b60405180910390a15050565b6060600382604051610bc3919061126d565b9081526020016040518091039020805480602002602001604051908101604052809291908181526020016000905b82821015610c9d578382906000526020600020018054610c10906112e2565b80601f0160208091040260200160405190810160405280929190818152602001828054610c3c906112e2565b8015610c895780601f10610c5e57610100808354040283529160200191610c89565b820191906000526020600020905b815481529060010190602001808311610c6c57829003601f168201915b505050505081526020019060010190610bf1565b505050509050919050565b60008073ffffffffffffffffffffffffffffffffffffffff16600483604051610cd1919061126d565b908152602001604051809103902060009054906101000a900473ffffffffffffffffffffffffffffffffffffffff1673ffffffffffffffffffffffffffffffffffffffff1614159050919050565b6000604051905090565b600080fd5b600080fd5b600080fd5b600080fd5b6000601f19601f8301169050919050565b7f4e487b7100000000000000000000000000000000000000000000000000000000600052604160045260246000fd5b610d8682610d3d565b810181811067ffffffffffffffff82111715610da557610da4610d4e565b5b80604052505050565b6000610db8610d1f565b9050610dc48282610d7d565b919050565b600067ffffffffffffffff821115610de457610de3610d4e565b5b610ded82610d3d565b9050602081019050919050565b82818337600083830152505050565b6000610e1c610e1784610dc9565b610dae565b905082815260208101848484011115610e3857610e37610d38565b5b610e43848285610dfa565b509392505050565b600082601f830112610e6057610e5f610d33565b5b8135610e70848260208601610e09565b91505092915050565b60008060408385031215610e9057610e8f610d29565b5b600083013567ffffffffffffffff811115610eae57610ead610d2e565b5b610eba85828601610e4b565b925050602083013567ffffffffffffffff811115610edb57610eda610d2e565b5b610ee785828601610e4b565b9150509250929050565b600081519050919050565b600082825260208201905092915050565b6000819050602082019050919050565b600081519050919050565b600082825260208201905092915050565b60005b83811015610f57578082015181840152602081019050610f3c565b60008484015250505050565b6000610f6e82610f1d565b610f788185610f28565b9350610f88818560208601610f39565b610f9181610d3d565b840191505092915050565b6000610fa88383610f63565b905092915050565b6000602082019050919050565b6000610fc882610ef1565b610fd28185610efc565b935083602082028501610fe485610f0d565b8060005b8581101561102057848403895281516110018582610f9c565b945061100c83610fb0565b925060208a01995050600181019050610fe8565b50829750879550505050505092915050565b6000602082019050818103600083015261104c8184610fbd565b905092915050565b60006020828403121561106a57611069610d29565b5b600082013567ffffffffffffffff81111561108857611087610d2e565b5b61109484828501610e4b565b91505092915050565b600081519050919050565b600082825260208201905092915050565b6000819050602082019050919050565b600060408301600083015184820360008601526110e68282610f63565b915050602083015184820360208601526111008282610f63565b9150508091505092915050565b600061111983836110c9565b905092915050565b6000602082019050919050565b60006111398261109d565b61114381856110a8565b935083602082028501611155856110b9565b8060005b858110156111915784840389528151611172858261110d565b945061117d83611121565b925060208a01995050600181019050611159565b50829750879550505050505092915050565b600060208201905081810360008301526111bd818461112e565b905092915050565b600082825260208201905092915050565b60006111e182610f1d565b6111eb81856111c5565b93506111fb818560208601610f39565b61120481610d3d565b840191505092915050565b6000602082019050818103600083015261122981846111d6565b905092915050565b600081905092915050565b600061124782610f1d565b6112518185611231565b9350611261818560208601610f39565b80840191505092915050565b6000611279828461123c565b915081905092915050565b7f4e487b7100000000000000000000000000000000000000000000000000000000600052603260045260246000fd5b7f4e487b7100000000000000000000000000000000000000000000000000000000600052602260045260246000fd5b600060028204905060018216806112fa57607f821691505b60208210810361130d5761130c6112b3565b5b50919050565b60008190508160005260206000209050919050565b60008154611335816112e2565b61133f8186611231565b9450600182166000811461135a576001811461136f576113a2565b60ff19831686528115158202860193506113a2565b61137885611313565b60005b8381101561139a5781548189015260018201915060208101905061137b565b838801955050505b50505092915050565b60006113b78284611328565b915081905092915050565b7f4e487b7100000000000000000000000000000000000000000000000000000000600052601160045260246000fd5b6000819050919050565b6000611406826113f1565b91507fffffffffffffffffffffffffffffffffffffffffffffffffffffffffffffffff8203611438576114376113c2565b5b600182019050919050565b60006020601f8301049050919050565b600082821b905092915050565b6000600883026114907fffffffffffffffffffffffffffffffffffffffffffffffffffffffffffffffff82611453565b61149a8683611453565b95508019841693508086168417925050509392505050565b6000819050919050565b60006114d76114d26114cd846113f1565b6114b2565b6113f1565b9050919050565b6000819050919050565b6114f1836114bc565b6115056114fd826114de565b848454611460565b825550505050565b600090565b61151a61150d565b6115258184846114e8565b505050565b5b818110156115495761153e600082611512565b60018101905061152b565b5050565b601f82111561158e5761155f81611313565b61156884611443565b81016020851015611577578190505b61158b61158385611443565b83018261152a565b50505b505050565b600082821c905092915050565b60006115b160001984600802611593565b1980831691505092915050565b60006115ca83836115a0565b9150826002028217905092915050565b6115e382610f1d565b67ffffffffffffffff8111156115fc576115fb610d4e565b5b61160682546112e2565b61161182828561154d565b600060209050601f8311600181146116445760008415611632578287015190505b61163c85826115be565b8655506116a4565b601f19841661165286611313565b60005b8281101561167a57848901518255600182019150602085019450602081019050611655565b868310156116975784890151611693601f8916826115a0565b8355505b6001600288020188555050505b505050505050565b600060408201905081810360008301526116c681856111d6565b905081810360208301526116da81846111d6565b9050939250505056fea264697066735822122002e07d808fcba4b4f380c20062bcd28c12e5c20e8aaee22811fc77d92f0f629164736f6c63430008110033",
  "linkReferences": {},
  "deployedLinkReferences": {}
}